{
  "contractName": "Spacebear",
  "abi": [
    {
      "inputs": [
        {
          "internalType": "address",
          "name": "initialOwner",
          "type": "address"
        }
      ],
      "stateMutability": "nonpayable",
      "type": "constructor"
    },
    {
      "inputs": [
        {
          "internalType": "address",
          "name": "sender",
          "type": "address"
        },
        {
          "internalType": "uint256",
          "name": "tokenId",
          "type": "uint256"
        },
        {
          "internalType": "address",
          "name": "owner",
          "type": "address"
        }
      ],
      "name": "ERC721IncorrectOwner",
      "type": "error"
    },
    {
      "inputs": [
        {
          "internalType": "address",
          "name": "operator",
          "type": "address"
        },
        {
          "internalType": "uint256",
          "name": "tokenId",
          "type": "uint256"
        }
      ],
      "name": "ERC721InsufficientApproval",
      "type": "error"
    },
    {
      "inputs": [
        {
          "internalType": "address",
          "name": "approver",
          "type": "address"
        }
      ],
      "name": "ERC721InvalidApprover",
      "type": "error"
    },
    {
      "inputs": [
        {
          "internalType": "address",
          "name": "operator",
          "type": "address"
        }
      ],
      "name": "ERC721InvalidOperator",
      "type": "error"
    },
    {
      "inputs": [
        {
          "internalType": "address",
          "name": "owner",
          "type": "address"
        }
      ],
      "name": "ERC721InvalidOwner",
      "type": "error"
    },
    {
      "inputs": [
        {
          "internalType": "address",
          "name": "receiver",
          "type": "address"
        }
      ],
      "name": "ERC721InvalidReceiver",
      "type": "error"
    },
    {
      "inputs": [
        {
          "internalType": "address",
          "name": "sender",
          "type": "address"
        }
      ],
      "name": "ERC721InvalidSender",
      "type": "error"
    },
    {
      "inputs": [
        {
          "internalType": "uint256",
          "name": "tokenId",
          "type": "uint256"
        }
      ],
      "name": "ERC721NonexistentToken",
      "type": "error"
    },
    {
      "inputs": [
        {
          "internalType": "address",
          "name": "owner",
          "type": "address"
        }
      ],
      "name": "OwnableInvalidOwner",
      "type": "error"
    },
    {
      "inputs": [
        {
          "internalType": "address",
          "name": "account",
          "type": "address"
        }
      ],
      "name": "OwnableUnauthorizedAccount",
      "type": "error"
    },
    {
      "anonymous": false,
      "inputs": [
        {
          "indexed": true,
          "internalType": "address",
          "name": "owner",
          "type": "address"
        },
        {
          "indexed": true,
          "internalType": "address",
          "name": "approved",
          "type": "address"
        },
        {
          "indexed": true,
          "internalType": "uint256",
          "name": "tokenId",
          "type": "uint256"
        }
      ],
      "name": "Approval",
      "type": "event"
    },
    {
      "anonymous": false,
      "inputs": [
        {
          "indexed": true,
          "internalType": "address",
          "name": "owner",
          "type": "address"
        },
        {
          "indexed": true,
          "internalType": "address",
          "name": "operator",
          "type": "address"
        },
        {
          "indexed": false,
          "internalType": "bool",
          "name": "approved",
          "type": "bool"
        }
      ],
      "name": "ApprovalForAll",
      "type": "event"
    },
    {
      "anonymous": false,
      "inputs": [
        {
          "indexed": true,
          "internalType": "address",
          "name": "previousOwner",
          "type": "address"
        },
        {
          "indexed": true,
          "internalType": "address",
          "name": "newOwner",
          "type": "address"
        }
      ],
      "name": "OwnershipTransferred",
      "type": "event"
    },
    {
      "anonymous": false,
      "inputs": [
        {
          "indexed": true,
          "internalType": "address",
          "name": "from",
          "type": "address"
        },
        {
          "indexed": true,
          "internalType": "address",
          "name": "to",
          "type": "address"
        },
        {
          "indexed": true,
          "internalType": "uint256",
          "name": "tokenId",
          "type": "uint256"
        }
      ],
      "name": "Transfer",
      "type": "event"
    },
    {
      "inputs": [],
      "name": "_nextTokenId",
      "outputs": [
        {
          "internalType": "uint256",
          "name": "",
          "type": "uint256"
        }
      ],
      "stateMutability": "view",
      "type": "function",
      "constant": true
    },
    {
      "inputs": [
        {
          "internalType": "address",
          "name": "to",
          "type": "address"
        },
        {
          "internalType": "uint256",
          "name": "tokenId",
          "type": "uint256"
        }
      ],
      "name": "approve",
      "outputs": [],
      "stateMutability": "nonpayable",
      "type": "function"
    },
    {
      "inputs": [
        {
          "internalType": "address",
          "name": "owner",
          "type": "address"
        }
      ],
      "name": "balanceOf",
      "outputs": [
        {
          "internalType": "uint256",
          "name": "",
          "type": "uint256"
        }
      ],
      "stateMutability": "view",
      "type": "function",
      "constant": true
    },
    {
      "inputs": [
        {
          "internalType": "uint256",
          "name": "tokenId",
          "type": "uint256"
        }
      ],
      "name": "burn",
      "outputs": [],
      "stateMutability": "nonpayable",
      "type": "function"
    },
    {
      "inputs": [
        {
          "internalType": "uint256",
          "name": "tokenId",
          "type": "uint256"
        }
      ],
      "name": "getApproved",
      "outputs": [
        {
          "internalType": "address",
          "name": "",
          "type": "address"
        }
      ],
      "stateMutability": "view",
      "type": "function",
      "constant": true
    },
    {
      "inputs": [
        {
          "internalType": "address",
          "name": "owner",
          "type": "address"
        },
        {
          "internalType": "address",
          "name": "operator",
          "type": "address"
        }
      ],
      "name": "isApprovedForAll",
      "outputs": [
        {
          "internalType": "bool",
          "name": "",
          "type": "bool"
        }
      ],
      "stateMutability": "view",
      "type": "function",
      "constant": true
    },
    {
      "inputs": [],
      "name": "name",
      "outputs": [
        {
          "internalType": "string",
          "name": "",
          "type": "string"
        }
      ],
      "stateMutability": "view",
      "type": "function",
      "constant": true
    },
    {
      "inputs": [],
      "name": "owner",
      "outputs": [
        {
          "internalType": "address",
          "name": "",
          "type": "address"
        }
      ],
      "stateMutability": "view",
      "type": "function",
      "constant": true
    },
    {
      "inputs": [
        {
          "internalType": "uint256",
          "name": "tokenId",
          "type": "uint256"
        }
      ],
      "name": "ownerOf",
      "outputs": [
        {
          "internalType": "address",
          "name": "",
          "type": "address"
        }
      ],
      "stateMutability": "view",
      "type": "function",
      "constant": true
    },
    {
      "inputs": [],
      "name": "renounceOwnership",
      "outputs": [],
      "stateMutability": "nonpayable",
      "type": "function"
    },
    {
      "inputs": [
        {
          "internalType": "address",
          "name": "from",
          "type": "address"
        },
        {
          "internalType": "address",
          "name": "to",
          "type": "address"
        },
        {
          "internalType": "uint256",
          "name": "tokenId",
          "type": "uint256"
        }
      ],
      "name": "safeTransferFrom",
      "outputs": [],
      "stateMutability": "nonpayable",
      "type": "function"
    },
    {
      "inputs": [
        {
          "internalType": "address",
          "name": "from",
          "type": "address"
        },
        {
          "internalType": "address",
          "name": "to",
          "type": "address"
        },
        {
          "internalType": "uint256",
          "name": "tokenId",
          "type": "uint256"
        },
        {
          "internalType": "bytes",
          "name": "data",
          "type": "bytes"
        }
      ],
      "name": "safeTransferFrom",
      "outputs": [],
      "stateMutability": "nonpayable",
      "type": "function"
    },
    {
      "inputs": [
        {
          "internalType": "address",
          "name": "operator",
          "type": "address"
        },
        {
          "internalType": "bool",
          "name": "approved",
          "type": "bool"
        }
      ],
      "name": "setApprovalForAll",
      "outputs": [],
      "stateMutability": "nonpayable",
      "type": "function"
    },
    {
      "inputs": [
        {
          "internalType": "bytes4",
          "name": "interfaceId",
          "type": "bytes4"
        }
      ],
      "name": "supportsInterface",
      "outputs": [
        {
          "internalType": "bool",
          "name": "",
          "type": "bool"
        }
      ],
      "stateMutability": "view",
      "type": "function",
      "constant": true
    },
    {
      "inputs": [],
      "name": "symbol",
      "outputs": [
        {
          "internalType": "string",
          "name": "",
          "type": "string"
        }
      ],
      "stateMutability": "view",
      "type": "function",
      "constant": true
    },
    {
      "inputs": [
        {
          "internalType": "address",
          "name": "from",
          "type": "address"
        },
        {
          "internalType": "address",
          "name": "to",
          "type": "address"
        },
        {
          "internalType": "uint256",
          "name": "tokenId",
          "type": "uint256"
        }
      ],
      "name": "transferFrom",
      "outputs": [],
      "stateMutability": "nonpayable",
      "type": "function"
    },
    {
      "inputs": [
        {
          "internalType": "address",
          "name": "newOwner",
          "type": "address"
        }
      ],
      "name": "transferOwnership",
      "outputs": [],
      "stateMutability": "nonpayable",
      "type": "function"
    },
    {
      "inputs": [],
      "name": "getNextTokenId",
      "outputs": [
        {
          "internalType": "uint256",
          "name": "",
          "type": "uint256"
        }
      ],
      "stateMutability": "view",
      "type": "function",
      "constant": true
    },
    {
      "inputs": [],
      "name": "buyToken",
      "outputs": [],
      "stateMutability": "payable",
      "type": "function",
      "payable": true
    },
    {
      "inputs": [
        {
          "internalType": "address",
          "name": "to",
          "type": "address"
        }
      ],
      "name": "safeMint",
      "outputs": [],
      "stateMutability": "nonpayable",
      "type": "function"
    },
    {
      "inputs": [
        {
          "internalType": "uint256",
          "name": "tokenId",
          "type": "uint256"
        }
      ],
      "name": "tokenURI",
      "outputs": [
        {
          "internalType": "string",
          "name": "",
          "type": "string"
        }
      ],
      "stateMutability": "pure",
      "type": "function",
      "constant": true
    }
  ],
  "bytecode": "0x608060405234801562000010575f80fd5b5060405162002ae338038062002ae383398181016040528101906200003691906200027c565b806040518060400160405280600981526020017f53706163656265617200000000000000000000000000000000000000000000008152506040518060400160405280600381526020017f5350420000000000000000000000000000000000000000000000000000000000815250815f9081620000b3919062000510565b508060019081620000c5919062000510565b5050505f73ffffffffffffffffffffffffffffffffffffffff168173ffffffffffffffffffffffffffffffffffffffff16036200013b575f6040517f1e4fbdf700000000000000000000000000000000000000000000000000000000815260040162000132919062000605565b60405180910390fd5b6200014c816200015460201b60201c565b505062000620565b5f60065f9054906101000a900473ffffffffffffffffffffffffffffffffffffffff1690508160065f6101000a81548173ffffffffffffffffffffffffffffffffffffffff021916908373ffffffffffffffffffffffffffffffffffffffff1602179055508173ffffffffffffffffffffffffffffffffffffffff168173ffffffffffffffffffffffffffffffffffffffff167f8be0079c531659141344cd1fd0a4f28419497f9722a3daafe3b4186f6b6457e060405160405180910390a35050565b5f80fd5b5f73ffffffffffffffffffffffffffffffffffffffff82169050919050565b5f62000246826200021b565b9050919050565b62000258816200023a565b811462000263575f80fd5b50565b5f8151905062000276816200024d565b92915050565b5f6020828403121562000294576200029362000217565b5b5f620002a38482850162000266565b91505092915050565b5f81519050919050565b7f4e487b71000000000000000000000000000000000000000000000000000000005f52604160045260245ffd5b7f4e487b71000000000000000000000000000000000000000000000000000000005f52602260045260245ffd5b5f60028204905060018216806200032857607f821691505b6020821081036200033e576200033d620002e3565b5b50919050565b5f819050815f5260205f209050919050565b5f6020601f8301049050919050565b5f82821b905092915050565b5f60088302620003a27fffffffffffffffffffffffffffffffffffffffffffffffffffffffffffffffff8262000365565b620003ae868362000365565b95508019841693508086168417925050509392505050565b5f819050919050565b5f819050919050565b5f620003f8620003f2620003ec84620003c6565b620003cf565b620003c6565b9050919050565b5f819050919050565b6200041383620003d8565b6200042b6200042282620003ff565b84845462000371565b825550505050565b5f90565b6200044162000433565b6200044e81848462000408565b505050565b5b818110156200047557620004695f8262000437565b60018101905062000454565b5050565b601f821115620004c4576200048e8162000344565b620004998462000356565b81016020851015620004a9578190505b620004c1620004b88562000356565b83018262000453565b50505b505050565b5f82821c905092915050565b5f620004e65f1984600802620004c9565b1980831691505092915050565b5f620005008383620004d5565b9150826002028217905092915050565b6200051b82620002ac565b67ffffffffffffffff811115620005375762000536620002b6565b5b62000543825462000310565b6200055082828562000479565b5f60209050601f83116001811462000586575f841562000571578287015190505b6200057d8582620004f3565b865550620005ec565b601f198416620005968662000344565b5f5b82811015620005bf5784890151825560018201915060208501945060208101905062000598565b86831015620005df5784890151620005db601f891682620004d5565b8355505b6001600288020188555050505b505050505050565b620005ff816200023a565b82525050565b5f6020820190506200061a5f830184620005f4565b92915050565b6124b5806200062e5f395ff3fe608060405260043610610129575f3560e01c806370a08231116100aa578063a48217191161006e578063a4821719146103cb578063b88d4fde146103d5578063c87b56dd146103fd578063caa0f92a14610439578063e985e9c514610463578063f2fde38b1461049f57610129565b806370a08231146102fd578063715018a6146103395780638da5cb5b1461034f57806395d89b4114610379578063a22cb465146103a357610129565b806340d097c3116100f157806340d097c31461021f57806342842e0e1461024757806342966c681461026f5780634a60f620146102975780636352211e146102c157610129565b806301ffc9a71461012d57806306fdde0314610169578063081812fc14610193578063095ea7b3146101cf57806323b872dd146101f7575b5f80fd5b348015610138575f80fd5b50610153600480360381019061014e9190611b3d565b6104c7565b6040516101609190611b82565b60405180910390f35b348015610174575f80fd5b5061017d6105a8565b60405161018a9190611c25565b60405180910390f35b34801561019e575f80fd5b506101b960048036038101906101b49190611c78565b610637565b6040516101c69190611ce2565b60405180910390f35b3480156101da575f80fd5b506101f560048036038101906101f09190611d25565b610652565b005b348015610202575f80fd5b5061021d60048036038101906102189190611d63565b610668565b005b34801561022a575f80fd5b5061024560048036038101906102409190611db3565b610767565b005b348015610252575f80fd5b5061026d60048036038101906102689190611d63565b6107a7565b005b34801561027a575f80fd5b5061029560048036038101906102909190611c78565b6107c6565b005b3480156102a2575f80fd5b506102ab6107dc565b6040516102b89190611ded565b60405180910390f35b3480156102cc575f80fd5b506102e760048036038101906102e29190611c78565b6107e2565b6040516102f49190611ce2565b60405180910390f35b348015610308575f80fd5b50610323600480360381019061031e9190611db3565b6107f3565b6040516103309190611ded565b60405180910390f35b348015610344575f80fd5b5061034d6108a9565b005b34801561035a575f80fd5b506103636108bc565b6040516103709190611ce2565b60405180910390f35b348015610384575f80fd5b5061038d6108e4565b60405161039a9190611c25565b60405180910390f35b3480156103ae575f80fd5b506103c960048036038101906103c49190611e30565b610974565b005b6103d361098a565b005b3480156103e0575f80fd5b506103fb60048036038101906103f69190611f9a565b610a0b565b005b348015610408575f80fd5b50610423600480360381019061041e9190611c78565b610a28565b6040516104309190611c25565b60405180910390f35b348015610444575f80fd5b5061044d610a6e565b60405161045a9190611ded565b60405180910390f35b34801561046e575f80fd5b506104896004803603810190610484919061201a565b610a77565b6040516104969190611b82565b60405180910390f35b3480156104aa575f80fd5b506104c560048036038101906104c09190611db3565b610b05565b005b5f7f80ac58cd000000000000000000000000000000000000000000000000000000007bffffffffffffffffffffffffffffffffffffffffffffffffffffffff1916827bffffffffffffffffffffffffffffffffffffffffffffffffffffffff1916148061059157507f5b5e139f000000000000000000000000000000000000000000000000000000007bffffffffffffffffffffffffffffffffffffffffffffffffffffffff1916827bffffffffffffffffffffffffffffffffffffffffffffffffffffffff1916145b806105a157506105a082610b89565b5b9050919050565b60605f80546105b690612085565b80601f01602080910402602001604051908101604052809291908181526020018280546105e290612085565b801561062d5780601f106106045761010080835404028352916020019161062d565b820191905f5260205f20905b81548152906001019060200180831161061057829003601f168201915b5050505050905090565b5f61064182610bf2565b5061064b82610c78565b9050919050565b610664828261065f610cb1565b610cb8565b5050565b5f73ffffffffffffffffffffffffffffffffffffffff168273ffffffffffffffffffffffffffffffffffffffff16036106d8575f6040517f64a0ae920000000000000000000000000000000000000000000000000000000081526004016106cf9190611ce2565b60405180910390fd5b5f6106eb83836106e6610cb1565b610cca565b90508373ffffffffffffffffffffffffffffffffffffffff168173ffffffffffffffffffffffffffffffffffffffff1614610761578382826040517f64283d7b000000000000000000000000000000000000000000000000000000008152600401610758939291906120b5565b60405180910390fd5b50505050565b61076f610ed5565b5f6007549050600160075f8282546107879190612117565b92505081905550610799600754610f5c565b6107a38282610ff5565b5050565b6107c183838360405180602001604052805f815250610a0b565b505050565b6107d85f826107d3610cb1565b610cca565b5050565b60075481565b5f6107ec82610bf2565b9050919050565b5f8073ffffffffffffffffffffffffffffffffffffffff168273ffffffffffffffffffffffffffffffffffffffff1603610864575f6040517f89c62b6400000000000000000000000000000000000000000000000000000000815260040161085b9190611ce2565b60405180910390fd5b60035f8373ffffffffffffffffffffffffffffffffffffffff1673ffffffffffffffffffffffffffffffffffffffff1681526020019081526020015f20549050919050565b6108b1610ed5565b6108ba5f611012565b565b5f60065f9054906101000a900473ffffffffffffffffffffffffffffffffffffffff16905090565b6060600180546108f390612085565b80601f016020809104026020016040519081016040528092919081815260200182805461091f90612085565b801561096a5780601f106109415761010080835404028352916020019161096a565b820191905f5260205f20905b81548152906001019060200180831161094d57829003601f168201915b5050505050905090565b61098661097f610cb1565b83836110d5565b5050565b5f600754905067016345785d8a0000816109a4919061214a565b34146109e5576040517f08c379a00000000000000000000000000000000000000000000000000000000081526004016109dc906121d5565b60405180910390fd5b600160075f8282546109f79190612117565b92505081905550610a083382610ff5565b50565b610a16848484610668565b610a228484848461123e565b50505050565b6060610a326113f0565b610a47600184610a429190612117565b611410565b604051602001610a589291906122c1565b6040516020818303038152906040529050919050565b5f600754905090565b5f60055f8473ffffffffffffffffffffffffffffffffffffffff1673ffffffffffffffffffffffffffffffffffffffff1681526020019081526020015f205f8373ffffffffffffffffffffffffffffffffffffffff1673ffffffffffffffffffffffffffffffffffffffff1681526020019081526020015f205f9054906101000a900460ff16905092915050565b610b0d610ed5565b5f73ffffffffffffffffffffffffffffffffffffffff168173ffffffffffffffffffffffffffffffffffffffff1603610b7d575f6040517f1e4fbdf7000000000000000000000000000000000000000000000000000000008152600401610b749190611ce2565b60405180910390fd5b610b8681611012565b50565b5f7f01ffc9a7000000000000000000000000000000000000000000000000000000007bffffffffffffffffffffffffffffffffffffffffffffffffffffffff1916827bffffffffffffffffffffffffffffffffffffffffffffffffffffffff1916149050919050565b5f80610bfd836114da565b90505f73ffffffffffffffffffffffffffffffffffffffff168173ffffffffffffffffffffffffffffffffffffffff1603610c6f57826040517f7e273289000000000000000000000000000000000000000000000000000000008152600401610c669190611ded565b60405180910390fd5b80915050919050565b5f60045f8381526020019081526020015f205f9054906101000a900473ffffffffffffffffffffffffffffffffffffffff169050919050565b5f33905090565b610cc58383836001611513565b505050565b5f80610cd5846114da565b90505f73ffffffffffffffffffffffffffffffffffffffff168373ffffffffffffffffffffffffffffffffffffffff1614610d1657610d158184866116d2565b5b5f73ffffffffffffffffffffffffffffffffffffffff168173ffffffffffffffffffffffffffffffffffffffff1614610da157610d555f855f80611513565b600160035f8373ffffffffffffffffffffffffffffffffffffffff1673ffffffffffffffffffffffffffffffffffffffff1681526020019081526020015f205f82825403925050819055505b5f73ffffffffffffffffffffffffffffffffffffffff168573ffffffffffffffffffffffffffffffffffffffff1614610e2057600160035f8773ffffffffffffffffffffffffffffffffffffffff1673ffffffffffffffffffffffffffffffffffffffff1681526020019081526020015f205f82825401925050819055505b8460025f8681526020019081526020015f205f6101000a81548173ffffffffffffffffffffffffffffffffffffffff021916908373ffffffffffffffffffffffffffffffffffffffff160217905550838573ffffffffffffffffffffffffffffffffffffffff168273ffffffffffffffffffffffffffffffffffffffff167fddf252ad1be2c89b69c2b068fc378daa952ba7f163c4a11628f55a4df523b3ef60405160405180910390a4809150509392505050565b610edd610cb1565b73ffffffffffffffffffffffffffffffffffffffff16610efb6108bc565b73ffffffffffffffffffffffffffffffffffffffff1614610f5a57610f1e610cb1565b6040517f118cdaa7000000000000000000000000000000000000000000000000000000008152600401610f519190611ce2565b60405180910390fd5b565b610ff281604051602401610f709190611ded565b6040516020818303038152906040527ff82c50f1000000000000000000000000000000000000000000000000000000007bffffffffffffffffffffffffffffffffffffffffffffffffffffffff19166020820180517bffffffffffffffffffffffffffffffffffffffffffffffffffffffff8381831617835250505050611795565b50565b61100e828260405180602001604052805f8152506117b8565b5050565b5f60065f9054906101000a900473ffffffffffffffffffffffffffffffffffffffff1690508160065f6101000a81548173ffffffffffffffffffffffffffffffffffffffff021916908373ffffffffffffffffffffffffffffffffffffffff1602179055508173ffffffffffffffffffffffffffffffffffffffff168173ffffffffffffffffffffffffffffffffffffffff167f8be0079c531659141344cd1fd0a4f28419497f9722a3daafe3b4186f6b6457e060405160405180910390a35050565b5f73ffffffffffffffffffffffffffffffffffffffff168273ffffffffffffffffffffffffffffffffffffffff160361114557816040517f5b08ba1800000000000000000000000000000000000000000000000000000000815260040161113c9190611ce2565b60405180910390fd5b8060055f8573ffffffffffffffffffffffffffffffffffffffff1673ffffffffffffffffffffffffffffffffffffffff1681526020019081526020015f205f8473ffffffffffffffffffffffffffffffffffffffff1673ffffffffffffffffffffffffffffffffffffffff1681526020019081526020015f205f6101000a81548160ff0219169083151502179055508173ffffffffffffffffffffffffffffffffffffffff168373ffffffffffffffffffffffffffffffffffffffff167f17307eab39ab6107e8899845ad3d59bd9653f200f220920489ca2b5937696c31836040516112319190611b82565b60405180910390a3505050565b5f8373ffffffffffffffffffffffffffffffffffffffff163b11156113ea578273ffffffffffffffffffffffffffffffffffffffff1663150b7a02611281610cb1565b8685856040518563ffffffff1660e01b81526004016112a3949392919061234c565b6020604051808303815f875af19250505080156112de57506040513d601f19601f820116820180604052508101906112db91906123aa565b60015b61135f573d805f811461130c576040519150601f19603f3d011682016040523d82523d5f602084013e611311565b606091505b505f81510361135757836040517f64a0ae9200000000000000000000000000000000000000000000000000000000815260040161134e9190611ce2565b60405180910390fd5b805181602001fd5b63150b7a0260e01b7bffffffffffffffffffffffffffffffffffffffffffffffffffffffff1916817bffffffffffffffffffffffffffffffffffffffffffffffffffffffff1916146113e857836040517f64a0ae920000000000000000000000000000000000000000000000000000000081526004016113df9190611ce2565b60405180910390fd5b505b50505050565b606060405180608001604052806056815260200161242a60569139905090565b60605f600161141e846117d3565b0190505f8167ffffffffffffffff81111561143c5761143b611e76565b5b6040519080825280601f01601f19166020018201604052801561146e5781602001600182028036833780820191505090505b5090505f82602001820190505b6001156114cf578080600190039150507f3031323334353637383961626364656600000000000000000000000000000000600a86061a8153600a85816114c4576114c36123d5565b5b0494505f850361147b575b819350505050919050565b5f60025f8381526020019081526020015f205f9054906101000a900473ffffffffffffffffffffffffffffffffffffffff169050919050565b808061154b57505f73ffffffffffffffffffffffffffffffffffffffff168273ffffffffffffffffffffffffffffffffffffffff1614155b1561167d575f61155a84610bf2565b90505f73ffffffffffffffffffffffffffffffffffffffff168373ffffffffffffffffffffffffffffffffffffffff16141580156115c457508273ffffffffffffffffffffffffffffffffffffffff168173ffffffffffffffffffffffffffffffffffffffff1614155b80156115d757506115d58184610a77565b155b1561161957826040517fa9fbf51f0000000000000000000000000000000000000000000000000000000081526004016116109190611ce2565b60405180910390fd5b811561167b57838573ffffffffffffffffffffffffffffffffffffffff168273ffffffffffffffffffffffffffffffffffffffff167f8c5be1e5ebec7d5bd14f71427d1e84f3dd0314c0f7b2291e5b200ac8c7c3b92560405160405180910390a45b505b8360045f8581526020019081526020015f205f6101000a81548173ffffffffffffffffffffffffffffffffffffffff021916908373ffffffffffffffffffffffffffffffffffffffff16021790555050505050565b6116dd838383611924565b611790575f73ffffffffffffffffffffffffffffffffffffffff168373ffffffffffffffffffffffffffffffffffffffff160361175157806040517f7e2732890000000000000000000000000000000000000000000000000000000081526004016117489190611ded565b60405180910390fd5b81816040517f177e802f000000000000000000000000000000000000000000000000000000008152600401611787929190612402565b60405180910390fd5b505050565b5f6a636f6e736f6c652e6c6f6790508151602083015f808383865afa5050505050565b6117c283836119e4565b6117ce5f84848461123e565b505050565b5f805f90507a184f03e93ff9f4daa797ed6e38ed64bf6a1f010000000000000000831061182f577a184f03e93ff9f4daa797ed6e38ed64bf6a1f0100000000000000008381611825576118246123d5565b5b0492506040810190505b6d04ee2d6d415b85acef8100000000831061186c576d04ee2d6d415b85acef81000000008381611862576118616123d5565b5b0492506020810190505b662386f26fc10000831061189b57662386f26fc100008381611891576118906123d5565b5b0492506010810190505b6305f5e10083106118c4576305f5e10083816118ba576118b96123d5565b5b0492506008810190505b61271083106118e95761271083816118df576118de6123d5565b5b0492506004810190505b6064831061190c5760648381611902576119016123d5565b5b0492506002810190505b600a831061191b576001810190505b80915050919050565b5f8073ffffffffffffffffffffffffffffffffffffffff168373ffffffffffffffffffffffffffffffffffffffff16141580156119db57508273ffffffffffffffffffffffffffffffffffffffff168473ffffffffffffffffffffffffffffffffffffffff16148061199c575061199b8484610a77565b5b806119da57508273ffffffffffffffffffffffffffffffffffffffff166119c283610c78565b73ffffffffffffffffffffffffffffffffffffffff16145b5b90509392505050565b5f73ffffffffffffffffffffffffffffffffffffffff168273ffffffffffffffffffffffffffffffffffffffff1603611a54575f6040517f64a0ae92000000000000000000000000000000000000000000000000000000008152600401611a4b9190611ce2565b60405180910390fd5b5f611a6083835f610cca565b90505f73ffffffffffffffffffffffffffffffffffffffff168173ffffffffffffffffffffffffffffffffffffffff1614611ad2575f6040517f73c6ac6e000000000000000000000000000000000000000000000000000000008152600401611ac99190611ce2565b60405180910390fd5b505050565b5f604051905090565b5f80fd5b5f80fd5b5f7fffffffff0000000000000000000000000000000000000000000000000000000082169050919050565b611b1c81611ae8565b8114611b26575f80fd5b50565b5f81359050611b3781611b13565b92915050565b5f60208284031215611b5257611b51611ae0565b5b5f611b5f84828501611b29565b91505092915050565b5f8115159050919050565b611b7c81611b68565b82525050565b5f602082019050611b955f830184611b73565b92915050565b5f81519050919050565b5f82825260208201905092915050565b5f5b83811015611bd2578082015181840152602081019050611bb7565b5f8484015250505050565b5f601f19601f8301169050919050565b5f611bf782611b9b565b611c018185611ba5565b9350611c11818560208601611bb5565b611c1a81611bdd565b840191505092915050565b5f6020820190508181035f830152611c3d8184611bed565b905092915050565b5f819050919050565b611c5781611c45565b8114611c61575f80fd5b50565b5f81359050611c7281611c4e565b92915050565b5f60208284031215611c8d57611c8c611ae0565b5b5f611c9a84828501611c64565b91505092915050565b5f73ffffffffffffffffffffffffffffffffffffffff82169050919050565b5f611ccc82611ca3565b9050919050565b611cdc81611cc2565b82525050565b5f602082019050611cf55f830184611cd3565b92915050565b611d0481611cc2565b8114611d0e575f80fd5b50565b5f81359050611d1f81611cfb565b92915050565b5f8060408385031215611d3b57611d3a611ae0565b5b5f611d4885828601611d11565b9250506020611d5985828601611c64565b9150509250929050565b5f805f60608486031215611d7a57611d79611ae0565b5b5f611d8786828701611d11565b9350506020611d9886828701611d11565b9250506040611da986828701611c64565b9150509250925092565b5f60208284031215611dc857611dc7611ae0565b5b5f611dd584828501611d11565b91505092915050565b611de781611c45565b82525050565b5f602082019050611e005f830184611dde565b92915050565b611e0f81611b68565b8114611e19575f80fd5b50565b5f81359050611e2a81611e06565b92915050565b5f8060408385031215611e4657611e45611ae0565b5b5f611e5385828601611d11565b9250506020611e6485828601611e1c565b9150509250929050565b5f80fd5b5f80fd5b7f4e487b71000000000000000000000000000000000000000000000000000000005f52604160045260245ffd5b611eac82611bdd565b810181811067ffffffffffffffff82111715611ecb57611eca611e76565b5b80604052505050565b5f611edd611ad7565b9050611ee98282611ea3565b919050565b5f67ffffffffffffffff821115611f0857611f07611e76565b5b611f1182611bdd565b9050602081019050919050565b828183375f83830152505050565b5f611f3e611f3984611eee565b611ed4565b905082815260208101848484011115611f5a57611f59611e72565b5b611f65848285611f1e565b509392505050565b5f82601f830112611f8157611f80611e6e565b5b8135611f91848260208601611f2c565b91505092915050565b5f805f8060808587031215611fb257611fb1611ae0565b5b5f611fbf87828801611d11565b9450506020611fd087828801611d11565b9350506040611fe187828801611c64565b925050606085013567ffffffffffffffff81111561200257612001611ae4565b5b61200e87828801611f6d565b91505092959194509250565b5f80604083850312156120305761202f611ae0565b5b5f61203d85828601611d11565b925050602061204e85828601611d11565b9150509250929050565b7f4e487b71000000000000000000000000000000000000000000000000000000005f52602260045260245ffd5b5f600282049050600182168061209c57607f821691505b6020821081036120af576120ae612058565b5b50919050565b5f6060820190506120c85f830186611cd3565b6120d56020830185611dde565b6120e26040830184611cd3565b949350505050565b7f4e487b71000000000000000000000000000000000000000000000000000000005f52601160045260245ffd5b5f61212182611c45565b915061212c83611c45565b9250828201905080821115612144576121436120ea565b5b92915050565b5f61215482611c45565b915061215f83611c45565b925082820261216d81611c45565b91508282048414831517612184576121836120ea565b5b5092915050565b7f4e6f7420656e6f7567682066756e64732073656e7421000000000000000000005f82015250565b5f6121bf601683611ba5565b91506121ca8261218b565b602082019050919050565b5f6020820190508181035f8301526121ec816121b3565b9050919050565b5f81905092915050565b5f61220782611b9b565b61221181856121f3565b9350612221818560208601611bb5565b80840191505092915050565b7f7370616365626561725f000000000000000000000000000000000000000000005f82015250565b5f612261600a836121f3565b915061226c8261222d565b600a82019050919050565b7f2e6a736f6e0000000000000000000000000000000000000000000000000000005f82015250565b5f6122ab6005836121f3565b91506122b682612277565b600582019050919050565b5f6122cc82856121fd565b91506122d782612255565b91506122e382846121fd565b91506122ee8261229f565b91508190509392505050565b5f81519050919050565b5f82825260208201905092915050565b5f61231e826122fa565b6123288185612304565b9350612338818560208601611bb5565b61234181611bdd565b840191505092915050565b5f60808201905061235f5f830187611cd3565b61236c6020830186611cd3565b6123796040830185611dde565b818103606083015261238b8184612314565b905095945050505050565b5f815190506123a481611b13565b92915050565b5f602082840312156123bf576123be611ae0565b5b5f6123cc84828501612396565b91505092915050565b7f4e487b71000000000000000000000000000000000000000000000000000000005f52601260045260245ffd5b5f6040820190506124155f830185611cd3565b6124226020830184611dde565b939250505056fe68747470733a2f2f657468657265756d2d626c6f636b636861696e2d646576656c6f7065722e636f6d2f323032322d30362d6e66742d74727566666c652d686172646861742d666f756e6472792f6e6674646174612fa264697066735822122030858d74c84ccbcbd65f48f9ada1c50b5dff5bbe3f6a72e20a862c53fe7624b864736f6c63430008150033",
  "immutableReferences": {},
  "source": "// contracts/GameItem.sol\n// SPDX-License-Identifier: MIT\npragma solidity ^0.8.21;\n\nimport \"@openzeppelin/contracts/token/ERC721/ERC721.sol\";\nimport \"@openzeppelin/contracts/token/ERC721/extensions/ERC721Burnable.sol\";\nimport \"@openzeppelin/contracts/access/Ownable.sol\";\nimport \"@ganache/console.log/console.sol\";\nimport \"@openzeppelin/contracts/utils/Strings.sol\";\n\ncontract Spacebear is ERC721,ERC721Burnable, Ownable {\n\n    uint256 public _nextTokenId;\n\n      constructor(address initialOwner)\n        ERC721(\"Spacebear\", \"SPB\")\n        Ownable(initialOwner)\n    {}\n\n\n    function getNextTokenId() public view returns (uint256) {\n    return _nextTokenId;\n    }\n\n    function _baseURI() internal pure override returns(string memory){\n        return \"https://ethereum-blockchain-developer.com/2022-06-nft-truffle-hardhat-foundry/nftdata/\";\n    }\n\n    function buyToken() public payable {\n        uint256 tokenId = _nextTokenId;\n        require(msg.value == tokenId * 0.1 ether, \"Not enough funds sent!\");\n        _nextTokenId += 1;\n        _safeMint(msg.sender, tokenId);\n    }\n    \n    function safeMint(address to) public onlyOwner{\n        uint256 tokenId = _nextTokenId;\n        _nextTokenId += 1;\n        console.log(_nextTokenId);\n        _safeMint(to, tokenId);\n    }\n\n    function tokenURI(uint256 tokenId) public pure override(ERC721) returns(string memory){\n        return string(abi.encodePacked(_baseURI(),\"spacebear_\",Strings.toString(tokenId+1),\".json\"));\n    }\n}",
  "sourcePath": "/home/chippuart/eth-nft-project/truffle/contracts/Spacebear.sol",
  "compiler": {
    "name": "solc",
    "version": "0.8.21+commit.d9974bed.Emscripten.clang"
  },
  "schemaVersion": "3.4.16",
  "updatedAt": "2024-02-25T14:30:26.987Z",
  "networkType": "ethereum",
  "devdoc": {
    "errors": {
      "ERC721IncorrectOwner(address,uint256,address)": [
        {
          "details": "Indicates an error related to the ownership over a particular token. Used in transfers.",
          "params": {
            "owner": "Address of the current owner of a token.",
            "sender": "Address whose tokens are being transferred.",
            "tokenId": "Identifier number of a token."
          }
        }
      ],
      "ERC721InsufficientApproval(address,uint256)": [
        {
          "details": "Indicates a failure with the `operator`s approval. Used in transfers.",
          "params": {
            "operator": "Address that may be allowed to operate on tokens without being their owner.",
            "tokenId": "Identifier number of a token."
          }
        }
      ],
      "ERC721InvalidApprover(address)": [
        {
          "details": "Indicates a failure with the `approver` of a token to be approved. Used in approvals.",
          "params": {
            "approver": "Address initiating an approval operation."
          }
        }
      ],
      "ERC721InvalidOperator(address)": [
        {
          "details": "Indicates a failure with the `operator` to be approved. Used in approvals.",
          "params": {
            "operator": "Address that may be allowed to operate on tokens without being their owner."
          }
        }
      ],
      "ERC721InvalidOwner(address)": [
        {
          "details": "Indicates that an address can't be an owner. For example, `address(0)` is a forbidden owner in EIP-20. Used in balance queries.",
          "params": {
            "owner": "Address of the current owner of a token."
          }
        }
      ],
      "ERC721InvalidReceiver(address)": [
        {
          "details": "Indicates a failure with the token `receiver`. Used in transfers.",
          "params": {
            "receiver": "Address to which tokens are being transferred."
          }
        }
      ],
      "ERC721InvalidSender(address)": [
        {
          "details": "Indicates a failure with the token `sender`. Used in transfers.",
          "params": {
            "sender": "Address whose tokens are being transferred."
          }
        }
      ],
      "ERC721NonexistentToken(uint256)": [
        {
          "details": "Indicates a `tokenId` whose `owner` is the zero address.",
          "params": {
            "tokenId": "Identifier number of a token."
          }
        }
      ],
      "OwnableInvalidOwner(address)": [
        {
          "details": "The owner is not a valid owner account. (eg. `address(0)`)"
        }
      ],
      "OwnableUnauthorizedAccount(address)": [
        {
          "details": "The caller account is not authorized to perform an operation."
        }
      ]
    },
    "events": {
      "Approval(address,address,uint256)": {
        "details": "Emitted when `owner` enables `approved` to manage the `tokenId` token."
      },
      "ApprovalForAll(address,address,bool)": {
        "details": "Emitted when `owner` enables or disables (`approved`) `operator` to manage all of its assets."
      },
      "Transfer(address,address,uint256)": {
        "details": "Emitted when `tokenId` token is transferred from `from` to `to`."
      }
    },
    "kind": "dev",
    "methods": {
      "approve(address,uint256)": {
        "details": "See {IERC721-approve}."
      },
      "balanceOf(address)": {
        "details": "See {IERC721-balanceOf}."
      },
      "burn(uint256)": {
        "details": "Burns `tokenId`. See {ERC721-_burn}. Requirements: - The caller must own `tokenId` or be an approved operator."
      },
      "getApproved(uint256)": {
        "details": "See {IERC721-getApproved}."
      },
      "isApprovedForAll(address,address)": {
        "details": "See {IERC721-isApprovedForAll}."
      },
      "name()": {
        "details": "See {IERC721Metadata-name}."
      },
      "owner()": {
        "details": "Returns the address of the current owner."
      },
      "ownerOf(uint256)": {
        "details": "See {IERC721-ownerOf}."
      },
      "renounceOwnership()": {
        "details": "Leaves the contract without owner. It will not be possible to call `onlyOwner` functions. Can only be called by the current owner. NOTE: Renouncing ownership will leave the contract without an owner, thereby disabling any functionality that is only available to the owner."
      },
      "safeTransferFrom(address,address,uint256)": {
        "details": "See {IERC721-safeTransferFrom}."
      },
      "safeTransferFrom(address,address,uint256,bytes)": {
        "details": "See {IERC721-safeTransferFrom}."
      },
      "setApprovalForAll(address,bool)": {
        "details": "See {IERC721-setApprovalForAll}."
      },
      "supportsInterface(bytes4)": {
        "details": "See {IERC165-supportsInterface}."
      },
      "symbol()": {
        "details": "See {IERC721Metadata-symbol}."
      },
      "tokenURI(uint256)": {
        "details": "See {IERC721Metadata-tokenURI}."
      },
      "transferFrom(address,address,uint256)": {
        "details": "See {IERC721-transferFrom}."
      },
      "transferOwnership(address)": {
        "details": "Transfers ownership of the contract to a new account (`newOwner`). Can only be called by the current owner."
      }
    },
    "version": 1
  },
  "userdoc": {
    "kind": "user",
    "methods": {},
    "version": 1
  }
}